{
  "contractName": "RealEstate",
  "abi": [
    {
      "constant": true,
      "inputs": [],
      "name": "marketOwner",
      "outputs": [
        {
          "name": "",
          "type": "address"
        }
      ],
      "payable": false,
      "stateMutability": "view",
      "type": "function",
      "signature": "0x47d90b5c"
    },
    {
      "constant": true,
      "inputs": [],
      "name": "propertyCount",
      "outputs": [
        {
          "name": "",
          "type": "uint256"
        }
      ],
      "payable": false,
      "stateMutability": "view",
      "type": "function",
      "signature": "0xc361a335"
    },
    {
      "constant": true,
      "inputs": [
        {
          "name": "",
          "type": "uint256"
        }
      ],
      "name": "properties",
      "outputs": [
        {
          "name": "owner",
          "type": "address"
        },
        {
          "name": "price",
          "type": "uint256"
        },
        {
          "name": "numBed",
          "type": "uint256"
        },
        {
          "name": "numBath",
          "type": "uint256"
        },
        {
          "name": "location",
          "type": "string"
        },
        {
          "name": "forSale",
          "type": "bool"
        }
      ],
      "payable": false,
      "stateMutability": "view",
      "type": "function",
      "signature": "0xf7b10808"
    },
    {
      "inputs": [],
      "payable": false,
      "stateMutability": "nonpayable",
      "type": "constructor",
      "signature": "constructor"
    },
    {
      "anonymous": false,
      "inputs": [
        {
          "indexed": false,
          "name": "id",
          "type": "uint256"
        },
        {
          "indexed": false,
          "name": "owner",
          "type": "address"
        },
        {
          "indexed": false,
          "name": "price",
          "type": "uint256"
        },
        {
          "indexed": false,
          "name": "numBed",
          "type": "uint256"
        },
        {
          "indexed": false,
          "name": "numBath",
          "type": "uint256"
        },
        {
          "indexed": false,
          "name": "location",
          "type": "string"
        },
        {
          "indexed": false,
          "name": "forSale",
          "type": "bool"
        }
      ],
      "name": "PropertyCreated",
      "type": "event",
      "signature": "0xd7015a10906674f6b8fd6680a12572f83bfa53d90f3e11cc589145c74cdb8b5f"
    },
    {
      "anonymous": false,
      "inputs": [
        {
          "indexed": false,
          "name": "id",
          "type": "uint256"
        },
        {
          "indexed": false,
          "name": "owner",
          "type": "address"
        },
        {
          "indexed": false,
          "name": "price",
          "type": "uint256"
        },
        {
          "indexed": false,
          "name": "numBed",
          "type": "uint256"
        },
        {
          "indexed": false,
          "name": "numBath",
          "type": "uint256"
        },
        {
          "indexed": false,
          "name": "location",
          "type": "string"
        },
        {
          "indexed": false,
          "name": "forSale",
          "type": "bool"
        }
      ],
      "name": "PropertyUpdated",
      "type": "event",
      "signature": "0xbb838ed3a08619f57a97741411d7cdceedb8df259847c7878869cfee8951a898"
    },
    {
      "anonymous": false,
      "inputs": [
        {
          "indexed": false,
          "name": "id",
          "type": "uint256"
        },
        {
          "indexed": false,
          "name": "oldOwner",
          "type": "address"
        },
        {
          "indexed": false,
          "name": "owner",
          "type": "address"
        }
      ],
      "name": "PropertySold",
      "type": "event",
      "signature": "0x80d70e2f1a3ad68b38c069f4d530fc790f30cb753a1be3c63688721b707f242e"
    },
    {
      "anonymous": false,
      "inputs": [
        {
          "indexed": false,
          "name": "id",
          "type": "uint256"
        },
        {
          "indexed": false,
          "name": "owner",
          "type": "address"
        },
        {
          "indexed": false,
          "name": "price",
          "type": "uint256"
        },
        {
          "indexed": false,
          "name": "numBed",
          "type": "uint256"
        },
        {
          "indexed": false,
          "name": "numBath",
          "type": "uint256"
        },
        {
          "indexed": false,
          "name": "location",
          "type": "string"
        },
        {
          "indexed": false,
          "name": "forSale",
          "type": "bool"
        }
      ],
      "name": "PropertyInfo",
      "type": "event",
      "signature": "0x5747d6c0880940c90c26d9a63482c432d160da6306e014b5909e1c64a4da5922"
    },
    {
      "constant": false,
      "inputs": [
        {
          "name": "_price",
          "type": "uint256"
        },
        {
          "name": "_numBed",
          "type": "uint256"
        },
        {
          "name": "_numBath",
          "type": "uint256"
        },
        {
          "name": "_location",
          "type": "string"
        }
      ],
      "name": "createProperty",
      "outputs": [],
      "payable": false,
      "stateMutability": "nonpayable",
      "type": "function",
      "signature": "0x49c5b679"
    },
    {
      "constant": false,
      "inputs": [
        {
          "name": "_propertyId",
          "type": "uint256"
        }
      ],
      "name": "makeOffer",
      "outputs": [],
      "payable": true,
      "stateMutability": "payable",
      "type": "function",
      "signature": "0x9a2f6474"
    },
    {
      "constant": false,
      "inputs": [
        {
          "name": "_propertyId",
          "type": "uint256"
        }
      ],
      "name": "scrapProperty",
      "outputs": [],
      "payable": false,
      "stateMutability": "nonpayable",
      "type": "function",
      "signature": "0xed59f98f"
    },
    {
      "constant": false,
      "inputs": [
        {
          "name": "_propertyId",
          "type": "uint256"
        },
        {
          "name": "_price",
          "type": "uint256"
        }
      ],
      "name": "updatePrice",
      "outputs": [],
      "payable": false,
      "stateMutability": "nonpayable",
      "type": "function",
      "signature": "0x82367b2d"
    },
    {
      "constant": false,
      "inputs": [
        {
          "name": "_propertyId",
          "type": "uint256"
        },
        {
          "name": "_location",
          "type": "string"
        }
      ],
      "name": "updateLocation",
      "outputs": [],
      "payable": false,
      "stateMutability": "nonpayable",
      "type": "function",
      "signature": "0x4ec0c9e9"
    },
    {
      "constant": false,
      "inputs": [
        {
          "name": "_propertyId",
          "type": "uint256"
        },
        {
          "name": "_forSale",
          "type": "bool"
        }
      ],
      "name": "updateForSale",
      "outputs": [],
      "payable": false,
      "stateMutability": "nonpayable",
      "type": "function",
      "signature": "0x90dff993"
    },
    {
      "constant": false,
      "inputs": [
        {
          "name": "_propertyId",
          "type": "uint256"
        }
      ],
      "name": "getPropertyInfo",
      "outputs": [],
      "payable": false,
      "stateMutability": "nonpayable",
      "type": "function",
      "signature": "0x40f0a055"
    }
  ],
  "bytecode": "0x60806040523480156200001157600080fd5b50600060018181558154600160a060020a031916331790915560408051808201909152600781527f546f726f6e746f0000000000000000000000000000000000000000000000000060208201526200007e91670de0b6b3a764000091819064010000000062000084810204565b62000371565b600054600160a060020a031633146200012457604080517f08c379a000000000000000000000000000000000000000000000000000000000815260206004820152603060248201527f596f7520646f206e6f7420686176652061636365737320746f2063726561746560448201527f206d6f72652070726f7065727469657300000000000000000000000000000000606482015290519081900360840190fd5b6001805481018082556040805160c0810182523380825260208083018a81528385018a8152606085018a8152608086018a815260a087018a90526000898152600280875298902087518154600160a060020a031916600160a060020a03909116178155935199840199909955905195820195909555935160038501559451805194959194929392620001bd9260048501920190620002cc565b5060a08201518160050160006101000a81548160ff0219169083151502179055509050507fd7015a10906674f6b8fd6680a12572f83bfa53d90f3e11cc589145c74cdb8b5f82338888888860016040518088815260200187600160a060020a0316600160a060020a031681526020018681526020018581526020018481526020018060200183151515158152602001828103825284818151815260200191508051906020019080838360005b838110156200028357818101518382015260200162000269565b50505050905090810190601f168015620002b15780820380516001836020036101000a031916815260200191505b509850505050505050505060405180910390a1505050505050565b828054600181600116156101000203166002900490600052602060002090601f016020900481019282601f106200030f57805160ff19168380011785556200033f565b828001600101855582156200033f579182015b828111156200033f57825182559160200191906001019062000322565b506200034d92915062000351565b5090565b6200036e91905b808211156200034d576000815560010162000358565b90565b6111b180620003816000396000f3fe6080604052600436106100a35763ffffffff7c010000000000000000000000000000000000000000000000000000000060003504166340f0a05581146100a857806347d90b5c146100d457806349c5b679146101055780634ec0c9e9146101cb57806382367b2d1461028557806390dff993146102b55780639a2f6474146102e7578063c361a33514610304578063ed59f98f1461032b578063f7b1080814610355575b600080fd5b3480156100b457600080fd5b506100d2600480360360208110156100cb57600080fd5b5035610430565b005b3480156100e057600080fd5b506100e9610552565b60408051600160a060020a039092168252519081900360200190f35b34801561011157600080fd5b506100d26004803603608081101561012857600080fd5b8135916020810135916040820135919081019060808101606082013564010000000081111561015657600080fd5b82018360208201111561016857600080fd5b8035906020019184600183028401116401000000008311171561018a57600080fd5b91908080601f016020809104026020016040519081016040528093929190818152602001838380828437600092019190915250929550610561945050505050565b3480156101d757600080fd5b506100d2600480360360408110156101ee57600080fd5b8135919081019060408101602082013564010000000081111561021057600080fd5b82018360208201111561022257600080fd5b8035906020019184600183028401116401000000008311171561024457600080fd5b91908080601f016020809104026020016040519081016040528093929190818152602001838380828437600092019190915250929550610799945050505050565b34801561029157600080fd5b506100d2600480360360408110156102a857600080fd5b50803590602001356107d7565b3480156102c157600080fd5b506100d2600480360360408110156102d857600080fd5b50803590602001351515610892565b6100d2600480360360208110156102fd57600080fd5b503561095f565b34801561031057600080fd5b50610319610ae0565b60408051918252519081900360200190f35b34801561033757600080fd5b506100d26004803603602081101561034e57600080fd5b5035610ae6565b34801561036157600080fd5b5061037f6004803603602081101561037857600080fd5b5035610d04565b6040518087600160a060020a0316600160a060020a031681526020018681526020018581526020018481526020018060200183151515158152602001828103825284818151815260200191508051906020019080838360005b838110156103f05781810151838201526020016103d8565b50505050905090810190601f16801561041d5780820380516001836020036101000a031916815260200191505b5097505050505050505060405180910390f35b6000818152600260208181526040928390208054600180830154838601546003850154600586015489518b8152600160a060020a03909616978601889052988501839052606085018290526080850181905260ff90981680151560c086015260e060a0860181815260048801805461010097811615880260001901169a909a0491870182905296997f5747d6c0880940c90c26d9a63482c432d160da6306e014b5909e1c64a4da5922998c999895979496919590949290918301908590801561053a5780601f1061050f5761010080835404028352916020019161053a565b820191906000526020600020905b81548152906001019060200180831161051d57829003601f168201915b50509850505050505050505060405180910390a15050565b600054600160a060020a031681565b600054600160a060020a031633146105e9576040805160e560020a62461bcd02815260206004820152603060248201527f596f7520646f206e6f7420686176652061636365737320746f2063726561746560448201527f206d6f72652070726f7065727469657300000000000000000000000000000000606482015290519081900360840190fd5b6001805481018082556040805160c0810182523380825260208083018a81528385018a8152606085018a8152608086018a815260a087018a9052600089815260028087529890208751815473ffffffffffffffffffffffffffffffffffffffff1916600160a060020a0390911617815593519984019990995590519582019590955593516003850155945180519495919492939261068d9260048501920190611033565b5060a08201518160050160006101000a81548160ff0219169083151502179055509050507fd7015a10906674f6b8fd6680a12572f83bfa53d90f3e11cc589145c74cdb8b5f82338888888860016040518088815260200187600160a060020a0316600160a060020a031681526020018681526020018581526020018481526020018060200183151515158152602001828103825284818151815260200191508051906020019080838360005b83811015610751578181015183820152602001610739565b50505050905090810190601f16801561077e5780820380516001836020036101000a031916815260200191505b509850505050505050505060405180910390a1505050505050565b60008281526002602081905260409091206001810154918101546003820154600583015492936107d2938793919290879060ff16610dd0565b505050565b60008281526002602081815260409283902080830154600382015460048301805487516001821615610100026000190190911696909604601f810186900486028701860190975286865292956107d2958995899591929083018282801561087f5780601f106108545761010080835404028352916020019161087f565b820191906000526020600020905b81548152906001019060200180831161086257829003601f168201915b50505050600588015460ff169050610dd0565b60006002600084815260200190815260200160002090506107d283826001015483600201548460030154856004018054600181600116156101000203166002900480601f0160208091040260200160405190810160405280929190818152602001828054600181600116156101000203166002900480156109545780601f1061092957610100808354040283529160200191610954565b820191906000526020600020905b81548152906001019060200180831161093757829003601f168201915b505050505087610dd0565b6000818152600260205260409020600581015460ff1615156109cb576040805160e560020a62461bcd02815260206004820152601860248201527f50726f7065727479206973206e6f7420666f722073616c650000000000000000604482015290519081900360640190fd5b6001810154341015610a27576040805160e560020a62461bcd02815260206004820152601760248201527f4f66666572206973206e6f742073756666696369656e74000000000000000000604482015290519081900360640190fd5b8054604051600160a060020a039091169081903480156108fc02916000818181858888f19350505050158015610a61573d6000803e3d6000fd5b50815473ffffffffffffffffffffffffffffffffffffffff191633908117835560058301805460ff1916905534600184015560408051858152600160a060020a038416602082015280820192909252517f80d70e2f1a3ad68b38c069f4d530fc790f30cb753a1be3c63688721b707f242e9181900360600190a1505050565b60015481565b60008181526002602052604090208054600160a060020a0316331480610b165750600054600160a060020a031633145b1515610b92576040805160e560020a62461bcd02815260206004820152602360248201527f4f6e6c7920746865206f776e65722063616e207363726170207468697320686f60448201527f7573650000000000000000000000000000000000000000000000000000000000606482015290519081900360840190fd5b610b9a6110b1565b6040805160c0810182528354600160a060020a03168152670de0b6b3a76400006020808301919091526001828401819052606083018190526004860180548551600261010094831615949094026000190190911692909204601f8101849004840283018401909552848252929360808501939192830182828015610c5f5780601f10610c3457610100808354040283529160200191610c5f565b820191906000526020600020905b815481529060010190602001808311610c4257829003601f168201915b50505091835250506000602091820181905285815260028083526040918290208451815473ffffffffffffffffffffffffffffffffffffffff1916600160a060020a039091161781558484015160018201559184015190820155606083015160038201556080830151805193945084939192610ce392600485019290910190611033565b5060a091909101516005909101805460ff1916911515919091179055505050565b60026020818152600092835260409283902080546001808301548386015460038501546004860180548a516101009682161596909602600019011698909804601f8101889004880285018801909952888452600160a060020a039094169791969095939493909190830182828015610dbd5780601f10610d9257610100808354040283529160200191610dbd565b820191906000526020600020905b815481529060010190602001808311610da057829003601f168201915b5050506005909301549192505060ff1686565b60008681526002602052604090208054600160a060020a0316331480610e005750600054600160a060020a031633145b1515610e7c576040805160e560020a62461bcd02815260206004820152602660248201527f4f6e6c7920746865206f776e65722063616e207570646174652074686520707260448201527f6f70657274790000000000000000000000000000000000000000000000000000606482015290519081900360840190fd5b6001810186905560028101859055600381018490558251610ea69060048301906020860190611033565b5060058101805483151560ff1990911617905560008781526002602081905260409091208254815473ffffffffffffffffffffffffffffffffffffffff1916600160a060020a0390911617815560018084015482820155828401548284015560038085015490830155600480850180548695610f3494938601938216156101000260001901909116046110f3565b506005918201549101805460ff191660ff909216151591909117905560408051888152336020808301829052928201899052606082018890526080820187905284151560c083015260e060a0830181815287519184019190915286517fbb838ed3a08619f57a97741411d7cdceedb8df259847c7878869cfee8951a898948c948c938c938c938c938c93909290916101008401919086019080838360005b83811015610fea578181015183820152602001610fd2565b50505050905090810190601f1680156110175780820380516001836020036101000a031916815260200191505b509850505050505050505060405180910390a150505050505050565b828054600181600116156101000203166002900490600052602060002090601f016020900481019282601f1061107457805160ff19168380011785556110a1565b828001600101855582156110a1579182015b828111156110a1578251825591602001919060010190611086565b506110ad929150611168565b5090565b60c0604051908101604052806000600160a060020a03168152602001600081526020016000815260200160008152602001606081526020016000151581525090565b828054600181600116156101000203166002900490600052602060002090601f016020900481019282601f1061112c57805485556110a1565b828001600101855582156110a157600052602060002091601f016020900482015b828111156110a157825482559160010191906001019061114d565b61118291905b808211156110ad576000815560010161116e565b9056fea165627a7a72305820299e2aaf603d7ffd684bbfbd183213439be15e34110f1202d9f5c3bd5a2163530029",
  "source": "// SPDX-License-Identifier: MIT\npragma solidity ^0.5.0;\n\ncontract RealEstate {\n    // Struct to represent a property listing\n    struct Property {\n        address payable owner;\n        uint price;\n        uint numBed;\n        uint numBath;\n        string location;\n        bool forSale;\n    }\n\n    // address of individual who created the RealEstate market\n    address public marketOwner;\n\n    // Mapping from property ID to property information\n    uint public propertyCount;\n    mapping(uint => Property) public properties;\n\n    // constructor\n    constructor() public {\n        propertyCount = 0;\n        marketOwner = msg.sender;\n\n        createProperty(1 ether, 1, 1, \"Toronto\");\n    }\n\n    // events\n    event PropertyCreated(\n        uint id,\n        address owner,\n        uint price,\n        uint numBed,\n        uint numBath,\n        string location,\n        bool forSale\n    );\n\n    event PropertyUpdated(\n        uint id,\n        address owner,\n        uint price,\n        uint numBed,\n        uint numBath,\n        string location,\n        bool forSale\n    );\n\n    event PropertySold(\n        uint id,\n        address oldOwner,\n        address owner\n    );\n\n    event PropertyInfo(\n        uint id,\n        address owner,\n        uint price,\n        uint numBed,\n        uint numBath,\n        string location,\n        bool forSale\n    );\n\n    // Function to create a new property listing\n    function createProperty(uint _price, uint _numBed, uint _numBath, string memory _location) public {\n        require(msg.sender == marketOwner, \"You do not have access to create more properties\");\n\n        // Increment the property count and use it as the ID for the new property\n        propertyCount++;\n        uint propertyId = propertyCount;\n\n        // Create a new property listing and set the owner to the caller\n        address payable propertyOwner = msg.sender;\n        properties[propertyId] = Property(propertyOwner, _price, _numBed, _numBath, _location, true);\n\n        // emit event that the property is created\n        emit PropertyCreated(propertyId, msg.sender, _price, _numBed, _numBath, _location, true);\n    }\n\n    // Function to make an offer on a property\n    function makeOffer(uint _propertyId) public payable {\n        // Retrieve the property information\n        Property storage property = properties[_propertyId];\n\n        // Check that the property is for sale and that the offer is valid\n        require(property.forSale, \"Property is not for sale\");\n        require(uint(msg.value) >= property.price, \"Offer is not sufficient\");\n\n        // Transfer ownership of the property to the caller and release the payment to the seller\n        address payable oldOwner = property.owner;\n        oldOwner.transfer(msg.value);\n\n        property.owner = msg.sender;\n        property.forSale = false;\n        property.price = uint(msg.value);\n\n        // emit that the property has been sold\n        emit PropertySold(_propertyId, oldOwner, msg.sender);\n    }\n\n    // Function to delete the property and refactor it to a small apartment (1 bed 1 bath)\n    function scrapProperty(uint _propertyId) public {\n        Property storage property = properties[_propertyId];\n\n        // require to be the owner of the house\n        require(property.owner == msg.sender || msg.sender == marketOwner, \"Only the owner can scrap this house\");\n\n        Property memory newProperty = Property(property.owner, 1 ether, 1, 1, property.location, false);\n        properties[_propertyId] = newProperty;\n    }\n\n    // Function to update the properties of a property listing\n    function updateProperty(uint _propertyId, uint _price, uint _numBed, uint _numBath, string memory _location, bool _forSale) internal {\n        // Retrieve the property information\n        Property storage property = properties[_propertyId];\n\n        // Check that the caller is the owner of the property\n        require(property.owner == msg.sender || msg.sender == marketOwner, \"Only the owner can update the property\");\n\n        // Update the properties of the property listing\n        property.price = _price;\n        property.numBed = _numBed;\n        property.numBath = _numBath;\n        property.location = _location;\n        property.forSale = _forSale;\n\n        properties[_propertyId] = property;\n\n        // emit event that the property is updated\n        emit PropertyUpdated(_propertyId, msg.sender, _price, _numBed, _numBath, _location, _forSale);\n    }\n\n    // Function to update the price of a property listing\n    function updatePrice(uint _propertyId, uint _price) public {\n        Property storage property = properties[_propertyId];\n        updateProperty(_propertyId, _price, property.numBed, property.numBath, property.location, property.forSale);\n    }\n\n    // Function to update the location of a property listing\n    function updateLocation(uint _propertyId, string memory _location) public {\n        Property storage property = properties[_propertyId];\n        updateProperty(_propertyId, property.price, property.numBed, property.numBath, _location, property.forSale);\n    }\n\n    // // Function to update the features of a property listing\n    // function updateFeatures(uint _propertyId, string memory _features) public {\n    //     Property storage property = properties[_propertyId];\n    //     updateProperty(_propertyId, property.price, property.location, _features, property.forSale);\n    // }\n\n    // Function to update the forSale of a property listing\n    function updateForSale(uint _propertyId, bool _forSale) public {\n        Property storage property = properties[_propertyId];\n        updateProperty(_propertyId, property.price, property.numBed, property.numBath, property.location, _forSale);\n    }\n\n    // Function to display the info of a property\n    function getPropertyInfo(uint _propertyId) public {\n        Property storage property = properties[_propertyId];\n        emit PropertyInfo(_propertyId, property.owner, property.price, property.numBed, property.numBath, property.location, property.forSale);\n    }\n}\n",
  "sourcePath": "/Users/rayaq/Desktop/projects/mini_projects_3/real-estate-blockchain/server/contracts/RealEstate.sol",
  "compiler": {
    "name": "solc",
    "version": "0.5.0+commit.1d4f565a.Emscripten.clang"
  },
  "schemaVersion": "3.0.1",
  "updatedAt": "2023-01-03T05:50:05.876Z",
  "devdoc": {
    "methods": {}
  },
  "userdoc": {
    "methods": {}
  }
}