{
  "contractName": "RealEstate",
  "abi": [
    {
      "constant": true,
      "inputs": [],
      "name": "propertyCount",
      "outputs": [
        {
          "name": "",
          "type": "uint256"
        }
      ],
      "payable": false,
      "stateMutability": "view",
      "type": "function",
      "signature": "0xc361a335"
    },
    {
      "constant": true,
      "inputs": [
        {
          "name": "",
          "type": "uint256"
        }
      ],
      "name": "properties",
      "outputs": [
        {
          "name": "owner",
          "type": "address"
        },
        {
          "name": "price",
          "type": "uint256"
        },
        {
          "name": "location",
          "type": "string"
        },
        {
          "name": "features",
          "type": "string"
        },
        {
          "name": "forSale",
          "type": "bool"
        }
      ],
      "payable": false,
      "stateMutability": "view",
      "type": "function",
      "signature": "0xf7b10808"
    },
    {
      "inputs": [],
      "payable": false,
      "stateMutability": "nonpayable",
      "type": "constructor",
      "signature": "constructor"
    },
    {
      "constant": false,
      "inputs": [
        {
          "name": "_price",
          "type": "uint256"
        },
        {
          "name": "_location",
          "type": "string"
        },
        {
          "name": "_features",
          "type": "string"
        }
      ],
      "name": "createProperty",
      "outputs": [],
      "payable": false,
      "stateMutability": "nonpayable",
      "type": "function",
      "signature": "0x0a1445a5"
    },
    {
      "constant": false,
      "inputs": [
        {
          "name": "_propertyId",
          "type": "uint256"
        },
        {
          "name": "_offer",
          "type": "uint256"
        }
      ],
      "name": "makeOffer",
      "outputs": [],
      "payable": true,
      "stateMutability": "payable",
      "type": "function",
      "signature": "0x05b7cdd3"
    },
    {
      "constant": false,
      "inputs": [
        {
          "name": "_propertyId",
          "type": "uint256"
        },
        {
          "name": "_price",
          "type": "uint256"
        },
        {
          "name": "_location",
          "type": "string"
        },
        {
          "name": "_features",
          "type": "string"
        },
        {
          "name": "_forSale",
          "type": "bool"
        }
      ],
      "name": "updateProperty",
      "outputs": [],
      "payable": false,
      "stateMutability": "nonpayable",
      "type": "function",
      "signature": "0x8256ddd5"
    }
  ],
  "bytecode": "0x608060405234801561001057600080fd5b50600060028190558054600160a060020a031916331790556109fa806100376000396000f3fe60806040526004361061006c5763ffffffff7c010000000000000000000000000000000000000000000000000000000060003504166305b7cdd381146100715780630a1445a5146100965780638256ddd5146101d7578063c361a3351461031f578063f7b1080814610346575b600080fd5b6100946004803603604081101561008757600080fd5b5080359060200135610479565b005b3480156100a257600080fd5b50610094600480360360608110156100b957600080fd5b813591908101906040810160208201356401000000008111156100db57600080fd5b8201836020820111156100ed57600080fd5b8035906020019184600183028401116401000000008311171561010f57600080fd5b91908080601f016020809104026020016040519081016040528093929190818152602001838380828437600092019190915250929594936020810193503591505064010000000081111561016257600080fd5b82018360208201111561017457600080fd5b8035906020019184600183028401116401000000008311171561019657600080fd5b91908080601f0160208091040260200160405190810160405280939291908181526020018383808284376000920191909152509295506105ad945050505050565b3480156101e357600080fd5b50610094600480360360a08110156101fa57600080fd5b81359160208101359181019060608101604082013564010000000081111561022157600080fd5b82018360208201111561023357600080fd5b8035906020019184600183028401116401000000008311171561025557600080fd5b91908080601f01602080910402602001604051908101604052809392919081815260200183838082843760009201919091525092959493602081019350359150506401000000008111156102a857600080fd5b8201836020820111156102ba57600080fd5b803590602001918460018302840111640100000000831117156102dc57600080fd5b91908080601f0160208091040260200160405190810160405280939291908181526020018383808284376000920191909152509295505050503515159050610701565b34801561032b57600080fd5b506103346107e1565b60408051918252519081900360200190f35b34801561035257600080fd5b506103706004803603602081101561036957600080fd5b50356107e7565b6040518086600160a060020a0316600160a060020a03168152602001858152602001806020018060200184151515158152602001838103835286818151815260200191508051906020019080838360005b838110156103d95781810151838201526020016103c1565b50505050905090810190601f1680156104065780820380516001836020036101000a031916815260200191505b50838103825285518152855160209182019187019080838360005b83811015610439578181015183820152602001610421565b50505050905090810190601f1680156104665780820380516001836020036101000a031916815260200191505b5097505050505050505060405180910390f35b6000828152600160205260409020600481015460ff1615156104e5576040805160e560020a62461bcd02815260206004820152601860248201527f50726f7065727479206973206e6f7420666f722073616c650000000000000000604482015290519081900360640190fd5b6001810154821015610541576040805160e560020a62461bcd02815260206004820152601760248201527f4f66666572206973206e6f742073756666696369656e74000000000000000000604482015290519081900360640190fd5b805473ffffffffffffffffffffffffffffffffffffffff1916331780825560048201805460ff191690556001820154604051600160a060020a03929092169181156108fc0291906000818181858888f193505050501580156105a7573d6000803e3d6000fd5b50505050565b600054600160a060020a03163314610635576040805160e560020a62461bcd02815260206004820152603060248201527f596f7520646f206e6f7420686176652061636365737320746f2063726561746560448201527f206d6f72652070726f7065727469657300000000000000000000000000000000606482015290519081900360840190fd5b6002805460019081018083556040805160a081018252338152602080820189815282840189815260608401899052608084018790526000868152878452949094208351815473ffffffffffffffffffffffffffffffffffffffff1916600160a060020a039091161781559051958101959095559151805193959194936106c393928501929190910190610933565b50606082015180516106df916003840191602090910190610933565b50608091909101516004909101805460ff191691151591909117905550505050565b60008581526001602052604090208054600160a060020a03163314610796576040805160e560020a62461bcd02815260206004820152602660248201527f4f6e6c7920746865206f776e65722063616e207570646174652074686520707260448201527f6f70657274790000000000000000000000000000000000000000000000000000606482015290519081900360840190fd5b6001810185905583516107b29060028301906020870190610933565b5082516107c89060038301906020860190610933565b50600401805460ff191691151591909117905550505050565b60025481565b6001602081815260009283526040928390208054818401546002808401805488516101009882161598909802600019011691909104601f8101869004860287018601909752868652600160a060020a0390921695909492938301828280156108905780601f1061086557610100808354040283529160200191610890565b820191906000526020600020905b81548152906001019060200180831161087357829003601f168201915b5050505060038301805460408051602060026001851615610100026000190190941693909304601f81018490048402820184019092528181529495949350908301828280156109205780601f106108f557610100808354040283529160200191610920565b820191906000526020600020905b81548152906001019060200180831161090357829003601f168201915b5050506004909301549192505060ff1685565b828054600181600116156101000203166002900490600052602060002090601f016020900481019282601f1061097457805160ff19168380011785556109a1565b828001600101855582156109a1579182015b828111156109a1578251825591602001919060010190610986565b506109ad9291506109b1565b5090565b6109cb91905b808211156109ad57600081556001016109b7565b9056fea165627a7a7230582019e05f9fa0942c2e13ce5248f0b0ea488bcfa359b3d34b6a4e26dbeb05fb2dad0029",
  "source": "// SPDX-License-Identifier: MIT\npragma solidity ^0.5.0;\n\ncontract RealEstate {\n    // Struct to represent a property listing\n    struct Property {\n        address payable owner;\n        uint price;\n        string location;\n        string features;\n        bool forSale;\n    }\n\n    address marketOwner;\n\n    // Mapping from property ID to property information\n    mapping(uint => Property) public properties;\n\n    // Counter to generate unique property IDs\n    uint public propertyCount;\n\n    // constructor\n    constructor() public {\n        propertyCount = 0;\n        marketOwner = msg.sender;\n    }\n\n    // Function to create a new property listing\n    function createProperty(uint _price, string memory _location, string memory _features) public {\n        require(msg.sender == marketOwner, \"You do not have access to create more properties\");\n\n        // Increment the property count and use it as the ID for the new property\n        propertyCount++;\n        uint propertyId = propertyCount;\n\n        // Create a new property listing and set the owner to the caller\n        properties[propertyId] = Property(msg.sender, _price, _location, _features, true);\n    }\n\n    // Function to make an offer on a property\n    function makeOffer(uint _propertyId, uint _offer) public payable {\n        // Retrieve the property information\n        Property storage property = properties[_propertyId];\n\n        // Check that the property is for sale and that the offer is valid\n        require(property.forSale, \"Property is not for sale\");\n        require(_offer >= property.price, \"Offer is not sufficient\");\n\n        // Transfer ownership of the property to the caller and release the payment to the seller\n        property.owner = msg.sender;\n        property.forSale = false;\n        property.owner.transfer(property.price);\n    }\n\n    // Function to update the properties of a property listing\n    function updateProperty(uint _propertyId, uint _price, string memory _location, string memory _features, bool _forSale) public {\n        // Retrieve the property information\n        Property storage property = properties[_propertyId];\n\n        // Check that the caller is the owner of the property\n        require(property.owner == msg.sender, \"Only the owner can update the property\");\n\n        // Update the properties of the property listing\n        property.price = _price;\n        property.location = _location;\n        property.features = _features;\n        property.forSale = _forSale;\n    }\n}\n",
  "sourcePath": "/Users/rayaq/Desktop/projects/mini_projects_3/real-estate-blockchain/server/contracts/RealEstate.sol",
  "compiler": {
    "name": "solc",
    "version": "0.5.0+commit.1d4f565a.Emscripten.clang"
  },
  "schemaVersion": "3.0.1",
  "updatedAt": "2023-01-03T00:47:31.477Z",
  "devdoc": {
    "methods": {}
  },
  "userdoc": {
    "methods": {}
  }
}